S02700004F6E2D64656D616E642054726166666963206C6967687420636F6E74726F6C2E7372656372
S11300000C942A000C9450010C943C000C943C0079
S11300100C943C000C943C000C943C000C943C006C
S11300200C943C000C943C000C943C000C943C005C
S11300300C943C000C943C000C943C000C943C004C
S11300400C943C000C943C000C943C000C943C003C
S11300500C943C0011241FBECFE5D8E0DEBFCDBF19
S113006020E0A0E6B0E001C01D92A436B207E1F79B
S11300700E94D2010C9496050C9400000E947D010C
S11300800E9477010E9470030E9465030895CF9334
S1130090DF938091630081117BC062E082E40E945F
S11300A09C0160E081E40E949C0168E873E180E0C7
S11300B090E00E948703809161008823B9F0109238
S11300C06100E7CF81E08093620024EF31E040E0FB
S11300D050E061E081E40E94A701809161008823DF
S11300E019F01092620007C0219602C0C0E0D0E06F
S11300F0CA30D1053CF380916100882319F0109235
S11301006100C7CF1092620060E081E40E94A00108
S113011061E081E40E94A00162E081E40E949C010C
S113012068E873E180E090E00E94870380916100B9
S11301308823B9F010926100ACCF81E08093620013
S113014024EF31E040E050E061E081E40E94A70147
S113015080916100882319F01092620007C02196F3
S113016002C0C0E0D0E0CA30D1053CF38091610008
S1130170882319F0109261008CCF1092620061E024
S113018081E40E94A00162E081E40E94A00181CF89
S1130190813009F07ECF61E081E40E94A00162E039
S11301A081E40E94B801882399F062E082E40E940D
S11301B0A00162E081E40E949C0160E082E40E946C
S11301C09C0168E873E180E090E00E94870339C0F5
S11301D060E081E40E94B801811104C08091620052
S11301E0882379F161E081E40E94A001C0E0D0E0BD
S11301F007C064EF71E080E090E00E94BB012196AB
S1130200CA30D105B4F362E082E40E94A00160E048
S113021081E40E94A00161E081E40E94A00161E008
S113022082E40E94A00162E081E40E949C0160E0FB
S113023082E40E949C0168E873E180E090E00E94FF
S1130240870362E081E40E949C0160E082E40E94F2
S11302509C01C0E0D0E007C064EF71E080E090E072
S11302600E94BB012196CA30D105B4F362E081E457
S11302700E94A00160E082E40E94A00161E081E4A8
S11302800E94A00161E082E40E94A00181E08093C9
S113029060008093610010926300DF91CF91089514
S11302A01F920F920FB60F9211242F933F934F93E7
S11302B05F936F937F938F939F93AF93BF93EF93CA
S11302C0FF9381E0809363000E944700FF91EF91C8
S11302D0BF91AF919F918F917F916F915F914F915A
S11302E03F912F910F900FBE0F901F90189540E0F3
S11302F062E084E40E94D901089541E060E081E471
S11303000E94D90141E061E081E40E94D90141E009
S113031062E081E40E94D90141E060E082E40E944D
S1130320D90141E061E082E40E94D90141E062E048
S113033082E40E94D901089541E00E945302089585
S113034040E00E94530208950E94CD020895CF9286
S1130350DF92EF92FF9269017A010E94CD02C701F8
S1130360B6010E948703FF90EF90DF90CF9008952D
S11303700E9404030895CF92DF92EF92FF926B01E3
S11303807C0161E081E40E94A40161E082E40E94B6
S1130390A401C701B6010E948703FF90EF90DF908C
S11303A0CF9008950E943E000E94470080E090E0B4
S11303B00895823431F118F4813439F00895833486
S11303C0E1F1843409F454C0089541110CC02AB3F6
S11303D081E090E002C0880F991F6A95E2F780954A
S11303E082238ABB0895413009F05CC02AB381E0BE
S11303F090E002C0880F991F6A95E2F7822B8ABBAE
S1130400089541110CC027B381E090E002C0880F29
S1130410991F6A95E2F78095822387BB089541303E
S113042009F040C027B381E090E002C0880F991F13
S11304306A95E2F7822B87BB089541110CC024B35F
S113044081E090E002C0880F991F6A95E2F78095D9
S1130450822384BB0895413029F524B381E090E0E0
S113046002C0880F991F6A95E2F7822B84BB089516
S113047041110CC021B381E090E002C0880F991FA4
S11304806A95E2F78095822381BB0895413051F447
S113049021B381E090E002C0880F991F6A95E2F7CA
S11304A0822B81BB0895823431F118F4813439F000
S11304B008958334E1F1843409F454C0089541115A
S11304C00CC02BB381E090E002C0880F991F6A959D
S11304D0E2F7809582238BBB0895413009F05CC01C
S11304E02BB381E090E002C0880F991F6A95E2F770
S11304F0822B8BBB089541110CC028B381E090E09E
S113050002C0880F991F6A95E2F78095822388BB01
S11305100895413009F040C028B381E090E002C062
S1130520880F991F6A95E2F7822B88BB08954111C1
S11305300CC025B381E090E002C0880F991F6A9532
S1130540E2F78095822385BB0895413029F525B3D0
S113055081E090E002C0880F991F6A95E2F7822B30
S113056085BB089541110CC025B381E090E002C021
S1130570880F991F6A95E2F78095822385BB0895B9
S1130580413051F425B381E090E002C0880F991FF7
S11305906A95E2F7822B85BB08958234A1F018F4A2
S11305A0813431F008958334C9F0843411F108950D
S11305B02BB381E090E002C0880F991F6A95E2F79F
S11305C082278BBB089528B381E090E002C0880F96
S11305D0991F6A95E2F7822788BB089525B381E0C5
S11305E090E002C0880F991F6A95E2F7822785BBC5
S11305F0089522B381E090E002C0880F991F6A95A4
S1130600E2F7822782BB08958234F9F018F481342A
S113061039F059C0833471F1843409F440C053C0B3
S113062049B381E090E09C01062E02C0220F331FE3
S11306300A94E2F7842F90E08223932302C09595D5
S113064087956A95E2F7982F3EC046B381E090E023
S11306509C01062E02C0220F331F0A94E2F7842F56
S113066090E08223932302C0959587956A95E2F7DB
S1130670982F29C043B381E090E09C01062E02C06C
S1130680220F331F0A94E2F7842F90E082239323EE
S113069002C0959587956A95E2F7982F14C040B3E8
S11306A081E090E09C01062E02C0220F331F0A94C1
S11306B0E2F7842F90E08223932302C095958795D7
S11306C06A95E2F7982F892F0895789485B7816009
S11306D085BF85B7826085BF8BB780648BBF089563
S11306E012BE83B78F7B83BF83B7877F83BF83B7F4
S11306F08F7E83BF83B78F7D83BF83B7816083BFC2
S113070083B78D7F83BF83B7846083BF08958F923F
S11307109F92AF92BF92CF92DF92EF92FF920F938C
S11307201F936B017C010E94A3044B015C012FE623
S113073032E143E853E40E94FD0388235CF186E040
S1130740C81681E0D806E104F10449F12FE632E14C
S113075043E853E4C501B4010E9402040E94E60385
S11307600E9474048B019C011EC080916000811161
S113077003C008B600FEF9CF88B7816088BF4F5F19
S11307805F4F6F4F7F4F80916000882379F0109204
S1130790600011C001E010E020E030E004C001E09E
S11307A010E020E030E040E050E0BA01401751078B
S11307B062077307F0F21F910F91FF90EF90DF90A3
S11307C0CF90BF90AF909F908F9008950E9477052F
S11307D090F09F3748F4911116F40C94900560E062
S11307E070E080E89FE3089526F01B16611D711DDB
S11307F0811D0C940A050C9425050E94E00408F45C
S113080081E008950E9416040C9444050E943D055D
S113081058F00E94360540F029F45F3F29F00C940B
S1130820040551110C9490050C9433050E94550550
S113083068F39923B1F3552391F3951B550BBB270B
S1130840AA2762177307840738F09F5F5F4F220F50
S1130850331F441FAA1FA9F335D00E2E3AF0E0E847
S113086032D091505040E695001CCAF72BD0FE2F91
S113087029D0660F771F881FBB1F26173707480725
S1130880AB07B0E809F0BB0B802DBF01FF279358DD
S11308905F4F3AF09E3F510578F00C9404050C9498
S11308A090055F3FE4F3983ED4F38695779567957A
S11308B0B795F7959F5FC9F7880F911D9695879512
S11308C097F90895E1E0660F771F881FBB1F621731
S11308D073078407BA0720F0621B730B840BBA0BEF
S11308E0EE1F88F7E09508950E945D0588F09F57F4
S11308F098F0B92F9927B751B0F0E1F0660F771F40
S1130900881F991F1AF0BA95C9F714C0B13091F035
S11309100E948F05B1E008950C948F05672F782FFE
S11309208827B85F39F0B93FCCF3869577956795FA
S1130930B395D9F73EF490958095709561957F4F66
S11309408F4F9F4F0895E89409C097FB3EF490950C
S11309508095709561957F4F8F4F9F4F9923A9F094
S1130960F92F96E9BB279395F69587957795679523
S1130970B795F111F8CFFAF4BB0F11F460FF1BC067
S11309806F5F7F4F8F4F9F4F16C0882311F096E9FA
S113099011C0772321F09EE8872F762F05C06623A8
S11309A071F096E8862F70E060E02AF09A95660F61
S11309B0771F881FDAF7880F9695879597F908951A
S11309C0990F0008550FAA0BE0E8FEEF161617065C
S11309D0E807F907C0F012161306E407F50798F0C4
S11309E0621B730B840B950B39F40A2661F0232BDD
S11309F0242B252B21F408950A2609F4A140A69559
S1130A008FEF811D811D089597F99F6780E870E03D
S1130A1060E00895882371F4772321F09850872BA0
S1130A20762F07C0662311F499270DC09051862BA9
S1130A3070E060E02AF09A95660F771F881FDAF756
S1130A40880F9695879597F908959F3F31F09150B7
S1130A5020F4879577956795B795880F911D96959E
S1130A60879597F908959FEF80EC089500240A94E0
S1130A701616170618060906089500240A94121675
S1130A801306140605060895092E0394000C11F4A8
S1130A90882352F0BB0F40F4BF2B11F460FF04C055
S1130AA06F5F7F4F8F4F9F4F089557FD9058440FAE
S1130AB0551F59F05F3F71F04795880F97FB991FB9
S1130AC061F09F3F79F08795089512161306140676
S1130AD0551FF2CF4695F1DF08C016161706180603
S1130AE0991FF1CF869571056105089408950E94B8
S1130AF05D05A0F0BEE7B91788F4BB279F3860F402
S1130B001616B11D672F782F8827985FF7CF869523
S1130B1077956795B11D93959639C8F30895E89430
S1130B20BB2766277727CB0197F90895F894FFCF61
S9030000FC
